:100951003F065B4F666D7D077F6F777C395E7971EE
:06096100FEFDFBF7EFDFD5
:100935007524EC75235175229A752144AF24AE2395
:0C094500AD22AC2175290212065C80F086
:08065C008F288E278D268C25C6
:10066400E4F52AAC291201138F368E358D348C3380
:100674007F007E007D207C41120777AB28AA27A942
:1006840026A8251200031201478F2E8E2D8D2C8C47
:100694002B7BA07A86790178001204678F2AAB2914
:1006A4007D011208EC7BA07A8679017800AF2EAE2A
:1006B4002DAD2CAC2B120467AC00AD01AE02AF0320
:1006C400E47B107A27F9F81204678F2AAB297D029C
:1006D4001208ECE47B107A27F9F8AF2EAE2DAD2C7E
:1006E400AC2B120467AC00AD01AE02AF03E47BE8AF
:1006F4007A03F9F81204678F2AAB297D031208ECF8
:10070400E47BE87A03F9F8AF2EAE2DAD2CAC2B12B6
:100714000467AC00AD01AE02AF03E47B64FAF9F800
:100724001204678F2AAB297D041208ECE47B64FA77
:10073400F9F8AF2EAE2DAD2CAC2B120467AC00AD86
:1007440001AE02AF03E47B0AFAF9F81204678F2AB8
:10075400AB297D051208ECE47B0AFAF9F8AF2EAE5A
:100764002DAD2CAC2B120467AF038F2AAB297D0669
:030774000208EC8C
:0308EC00EF602595
:1008EF0090095193F52FEB600AC374069BB505036E
:1008FF00432F80852F80D2A6C2A6ED90096093F575
:05090F0080D2A7C2A781
:0309140002097362
:070973007F017E000209175D
:10091700D3EF9400EE940040147D717C00ED1D70C0
:0D092700011CED4C70F7EF1F70E61E80E321
:0109340022A0
:10000300EC4D6011E8497017ED33EC3304600DE4F7
:10001300FCFFFEFD22E933E8330470F80201B3125A
:10002300017E58046009E4CC24815006285009025B
:1000330001BD2840030201BAC0E0EB4A7044B98015
:1000430006D0E0FB0201A9EF4E701CBD8008EBFF58
:10005300EAFEE9FD80EBE98DF0A4FEE5F00200EC99
:10006300E9CDF9EAFEEBFFEF89F0A4FCE5F0CE89D8
:10007300F0A42EFFE435F0CD89F0A42DFEE435F095
:100083008067EF4E7005BD80D780C3EF8BF0A4ACC3
:10009300F0EE8BF0A42CFCE435F0F8EF8AF0A42CFE
:1000A300E5F038FCE433CB8DF0A42CFCE5F03BF811
:1000B300EE8AF0A42CFCE5F038F8E433CF89F0A401
:1000C3002CFCE5F038CF3400CE89F0A42FFFE5F007
:1000D3003EFEE433C98DF0A42EFEE5F039CD8AF05F
:1000E300A42FFFE5F03EFEE43DFD33D0E0FB5007D7
:1000F3000BBB000F0201BDEC2CFCEF33FFEE33FE14
:06010300ED33FD02019541
:1001090075F020800E75F010800575F0087D007E71
:10011900007F003392D530D5031204F9EC33401037
:10012900EF33FFEE33FEED33FDEC33FCD5F0ED227A
:0E013900E5F0247EA2D513CC92E7CDCEFF22B6
:10014700EDD2E7CD33EC3392D524814006E4FFFEB0
:10015700FDFC22FCE4CFCECDCC24E0501174FF800F
:10016700EDC3CC13CCCD13CDCE13CECF13CF0470AC
:07017700F030D5DE0204F9AF
:100777008F328E318D308C2FE4FFFEFDFCAB32AA19
:1007870031A930A82F1202C07026FFFEFDFCAB3640
:10079700AA35A934A8331202C060084006E4FFFE58
:1007A700FDFC2274FFF536F535F534F533020849BB
:1007B700E4F537F538FFFEFDFCAB32AA31A930A8C6
:1007C7002F1202C0504BAF36AE35AD34AC331201E9
:1007D700478E378F38AC37AD38EC12010EC8ECC8EE
:1007E700C9EDC9CAEECACBEFCBAF36AE35AD34AC27
:1007F700331201CBE4FBFAF9F81202C070A5AF324D
:10080700AE31AD30AC2F12032D8F328E318D308C3F
:100817002FAF32AE31AD30AC2F12055BAB36AA35F8
:10082700A934A83312000312088A8F368E358D3407
:100837008C33E53830E00B12032D8F368E358D342F
:0B0847008C33AF36AE35AD34AC33223D
:10017E00E9D2E7C933E833F892D5EDD2E7CD33ECC7
:07018E0033FC5002B2D52240
:10019500EC30E7100FBF000C0EBE00080DBD0004CB
:1001A5000BEB6014A2D5EB13FCED92E7FD2274FF77
:1001B500FCFDFEFF22E480F8A2D574FF13FC7D80D0
:0301C500E480EFE4
:1001C8000201B3E86480F8E933E83360110460F0B1
:1001D800ED33EC337009E8FCE9FDEAFEEBFF22049D
:1001E80060DED3EB9FEA9EE99DE8C2E78CF0C2F798
:1001F80095F0400CE8CCF8E9CDF9EACEFAEBCFFB64
:1002080012017E85D0F05804700320D5B3E804703D
:10021800075002B2D50201BD92D5EC0460F7E4CCD8
:10022800C0E0C398F8603B94186008400DD0E0FB2C
:10023800020195E4FBFAC9FC8028E830E406E4C929
:10024800FBE4CAFCE830E305E4C9CACBFCE8540780
:100258006010F8C3E913F9EA13FAEB13FBEC13FC8B
:10026800D8F130F52FC3E49CFCEF9BFFEE9AFEED2E
:1002780099FDD0E0FBEF4E4D4C701222DB030201DA
:10028800BAEC2CFCEF33FFEE33FEED33FDED30E737
:10029800EB020195EF2BFFEE3AFEED39FDD0E0FBC6
:1002A80050130BBB00030201BDED13FDEE13FEEF6F
:0802B80013FFEC13FC02019599
:1002C00074F8CC6480CCC86480C8F582046043C3F1
:1002D000EB9FF5F0EA9E42F0E99D42F0E89C45F084
:1002E00060305018E5825FFFE582F42B5582FB50A9
:1002F000210ABA001D09B90019088016E5825BFBC6
:10030000E582F42F5582FF50090EBE00050DBD0099
:10031000010CC3EB9FF5F0EA9E42F0E99D42F0E844
:0D0320009C45F06007CC4820E701B3EC22BB
:10032D00ED33EC33600A047003BD8004ECB2E7FCDE
:01033D00229D
:1008520033DA929E35B16011377FE5FE3921848902
:100862003AAEC3FF3C1D955B3D6358473E75FDF0B4
:100872003F3172183F800000C2D50201BD0201B3B0
:10088200BD80FA50F30201BAED33EC330460F17B20
:100892003B7AAA79B8783F120003ED33EC3392D554
:1008A200247B5011A2D570DB500BED448024045000
:1008B20004A2D580CEEFFBEEFAEDF9ECF812014777
:1008C200EFF582F404FC1201131201CFC0829008EA
:1008D2005274091203EDED33CC33D0F092D525F0EA
:0A08E200A2D57001C313CC13FD2250
:100527003E9248DA3ECCCCCD3F2AAAAB4000000031
:100537003F8000003F9837F03FB504F33FD744FCB6
:100547003E3172173EB172173F0515913EDE5BD9FA
:10055700D2008002C200EDD2E7F8CD33EC3304704D
:100567000BBD800592D50201BD0201B340FBD31438
:1005770060F2F5F07C3FEE7A00C39496C8948B4006
:10058700230AC89469C8941A401A0AC89468C89478
:100597001F40110AC8945AC89425400805F07A00EC
:1005A700CDC2E7CDC0F08C398D3A8E3B8F3CEA2324
:1005B70023C0E02437F582E43405F58312051712CA
:1005C70001CFECC0E0EDC0E0EEC0E0EFC0E0120507
:1005D70007A839A93AAA3BAB3C1201CBD0E0FBD024
:1005E700E0FAD0E0F9D0E0B2E7F81203418C398D98
:1005F7003A8E3B8F3C90052774031203DEA839A976
:100607003AAA3BAB3C120003D0E0600F2443F582CB
:10061700E43405F5831205171201CF8C398D3A8E14
:100627003B8F3CD0E0C3947FFDE49400FC12010EA5
:100637007B187A727931783F120003A839A93AAA50
:100647003BAB3C1201CF30000B7BD97A5B79DE786C
:050657003E1200032229
:10033E000201BDEC5D046005E8590470030201B3CF
:10034E0012017E580460F6EC4860F2EC7004FDFE7B
:10035E00FF22C860DB2481C85009C3986002500692
:10036E000201BA9850CAF582E9294B4A7005AB8250
:10037E000201A975F0007C1A7880C3EF9BEE9AED0E
:10038E0099400DC3EF9BFFEE9AFEED99FDE842F00A
:10039E00DC23ACF0D0E0FFD0E0FED0E0FDAB82205D
:1003AE00E7101BEB60BAEC2CFCEF33FFEE33FEEDE7
:1003BE0033FD020195E803F830E705C0F075F00053
:1003CE00EF2FFFEE33FEED33FD40B830E7C280AACB
:1003DE00C0E0EFFBEEFAEDF9ECF8120003D0E0F519
:1003EE00F0EFFBEEFAEDF9ECF8120507A3A3A3A3C9
:1003FE00E8C0E0E9C0E0EAC0E0EBC0E0C0F0120007
:10040E0003120517A3A3A3A31201CFD0F0D0E0FBD4
:0D041E00D0E0FAD0E0F9D0E0F8D5F0D4221B
:030000000209678B
:0C096700787FE4F6D8FD75813C0209356C
:10042B0075F008758200EF2FFFEE33FECD33CDCC88
:10043B0033CCC58233C5829BED9AEC99E58298400B
:10044B000CF582EE9BFEED9AFDEC99FC0FD5F0D6E8
:10045B00E4CEFBE4CDFAE4CCF9A88222B800C1B912
:10046B000059BA002DEC8BF084CFCECDFCE5F0CB50
:10047B00F97818EF2FFFEE33FEED33FDEC33FCEB89
:10048B0033FB10D703994004EB99FB0FD8E5E4F944
:10049B00FA227818EF2FFFEE33FEED33FDEC33FC31
:1004AB00C933C910D7059BE99A4007EC9BFCE99A25
:1004BB00F90FD8E0E4C9FAE4CCFB2275F010EF2F6A
:1004CB00FFEE33FEED33FDCC33CCC833C810D7076A
:1004DB009BEC9AE899400AED9BFDEC9AFCE899F8A5
:0E04EB000FD5F0DAE4CDFBE4CCFAE4C8F92238
:0E04F900C3E49FFFE49EFEE49DFDE49CFC2214
:10050700E493FC740193FD740293FE740393FF223A
:10051700E493F8740193F9740293FA740393FB223A
:00000001FF
