:100A37003F065B4F666D7D077F6F777C395E797107
:060A4700FEFDFBF7EFDFEE
:10094C00E4F521F522F5237524DC758901120003E9
:10095C00D2AFD2A9D28CAE23AF247C007D1412046A
:10096C00368E258F26AC25AD26E4120119E4F50C44
:10097C001206BCE526452570DDE522452170D7F52C
:10098C0021752201C2A37FE87E03120A19D2A3802B
:01099C00C595
:03000B0002099D4A
:10099D00C0E0C0F0C083C082C0D075D000C000C020
:1009AD0001C002C003C004C005C006C00712000389
:1009BD00E524152470021523E52445237002C28C0D
:1009CD00D007D006D005D004D003D002D001D0007E
:0B09DD00D0D0D082D083D0F0D0E03228
:07000300758C4CE4F58A2224
:0806BC008F0B8E0A8D098C08DA
:1006C400E4F50DAC0C12011E8F198E188D178C16C3
:1006D4007F007E007D207C411207D7AB0BAA0AA9BC
:1006E40009A80812000E1201528F118E108D0F8C62
:1006F4000E7BA07A86790178001204C78F0DAB0CAB
:100704007D011209E87BA07A8679017800AF11AEE9
:1007140010AD0FAC0E1204C7AC00AD01AE02AF03B6
:10072400E47B107A27F9F81204C78F0DAB0C7D0215
:100734001209E8E47B107A27F9F8AF11AE10AD0F77
:10074400AC0E1204C7AC00AD01AE02AF03E47BE80B
:100754007A03F9F81204C78F0DAB0C7D031209E874
:10076400E47BE87A03F9F8AF11AE10AD0FAC0E12CA
:1007740004C7AC00AD01AE02AF03E47B64FAF9F840
:100784001204C78F0DAB0C7D041209E8E47B64FAF4
:10079400F9F8AF11AE10AD0FAC0E1204C7AC00AD3A
:1007A40001AE02AF03E47B0AFAF9F81204C78F0D15
:1007B400AB0C7D051209E8E47B0AFAF9F8AF11AE37
:1007C40010AD0FAC0E1204C7AF038F0DAB0C7D063A
:0307D4000209E82F
:0809E800EF7005ED64067026B6
:1009F000EF900A3793F512EB600AC374069BB505B6
:100A000003431280851280D2A6C2A6ED900A4693B7
:060A1000F580D2A7C2A789
:030A1600020A5978
:070A59007F017E00020A1973
:100A1900D3EF9400EE940040147D717C00ED1D70BD
:0D0A2900011CED4C70F7EF1F70E61E80E31E
:010A3600229D
:10000E00EC4D6011E8497017ED33EC3304600DE4EC
:10001E00FCFFFEFD22E933E8330470F80201BE1244
:10002E00018958046009E4CC248150062850090245
:10003E0001C82840030201C5C0E0EB4A7044B980F4
:10004E0006D0E0FB0201B4EF4E701CBD8008EBFF42
:10005E00EAFEE9FD80EBE98DF0A4FEE5F00200F783
:10006E00E9CDF9EAFEEBFFEF89F0A4FCE5F0CE89CD
:10007E00F0A42EFFE435F0CD89F0A42DFEE435F08A
:10008E008067EF4E7005BD80D780C3EF8BF0A4ACB8
:10009E00F0EE8BF0A42CFCE435F0F8EF8AF0A42CF3
:1000AE00E5F038FCE433CB8DF0A42CFCE5F03BF806
:1000BE00EE8AF0A42CFCE5F038F8E433CF89F0A4F6
:1000CE002CFCE5F038CF3400CE89F0A42FFFE5F0FC
:1000DE003EFEE433C98DF0A42EFEE5F039CD8AF054
:1000EE00A42FFFE5F03EFEE43DFD33D0E0FB5007CC
:1000FE000BBB000F0201C8EC2CFCEF33FFEE33FEFE
:06010E00ED33FD0201A02B
:1001140075F020800E75F010800575F0087D007E66
:10012400007F003392D530D503120559EC334010CB
:10013400EF33FFEE33FEED33FDEC33FCD5F0ED226F
:0E014400E5F0247EA2D513CC92E7CDCEFF22AB
:10015200EDD2E7CD33EC3392D524814006E4FFFEA5
:10016200FDFC22FCE4CFCECDCC24E0501174FF8004
:10017200EDC3CC13CCCD13CDCE13CECF13CF0470A1
:07018200F030D5DE02055943
:1007D7008F158E148D138C12E4FFFEFDFCAB15AA4A
:1007E70014A913A8121202CB7026FFFEFDFCAB1949
:1007F700AA18A917A8161202CB60084006E4FFFE44
:10080700FDFC2274FFF519F518F517F5160208A96E
:10081700E4F51AF51BFFFEFDFCAB15AA14A913A8F6
:10082700121202CB504BAF19AE18AD17AC1612010E
:10083700528E1A8F1BAC1AAD1BEC120119C8ECC8EB
:10084700C9EDC9CAEECACBEFCBAF19AE18AD17AC1D
:10085700161201D6E4FBFAF9F81202CB70A5AF1510
:10086700AE14AD13AC121203388F158E148D138C82
:1008770012AF15AE14AD13AC121205BBAB19AA1803
:10088700A917A81612000E1208EA8F198E188D17CD
:100897008C16E51B30E00B1203388F198E188D1755
:0B08A7008C16AF19AE18AD17AC16226E
:10018900E9D2E7C933E833F892D5EDD2E7CD33ECBC
:0701990033FC5002B2D52235
:1001A000EC30E7100FBF000C0EBE00080DBD0004C0
:1001B0000BEB6014A2D5EB13FCED92E7FD2274FF6C
:1001C000FCFDFEFF22E480F8A2D574FF13FC7D80C5
:0301D000E480EFD9
:1001D3000201BEE86480F8E933E83360110460F09B
:1001E300ED33EC337009E8FCE9FDEAFEEBFF220492
:1001F30060DED3EB9FEA9EE99DE8C2E78CF0C2F78D
:1002030095F0400CE8CCF8E9CDF9EACEFAEBCFFB58
:1002130012018985D0F05804700320D5B3E8047027
:10022300075002B2D50201C892D5EC0460F7E4CCC2
:10023300C0E0C398F8603B94186008400DD0E0FB21
:100243000201A0E4FBFAC9FC8028E830E406E4C913
:10025300FBE4CAFCE830E305E4C9CACBFCE8540775
:100263006010F8C3E913F9EA13FAEB13FBEC13FC80
:10027300D8F130F52FC3E49CFCEF9BFFEE9AFEED23
:1002830099FDD0E0FBEF4E4D4C701222DB030201CF
:10029300C5EC2CFCEF33FFEE33FEED33FDED30E721
:1002A300EB0201A0EF2BFFEE3AFEED39FDD0E0FBB0
:1002B30050130BBB00030201C8ED13FDEE13FEEF59
:0802C30013FFEC13FC0201A083
:1002CB0074F8CC6480CCC86480C8F582046043C3E6
:1002DB00EB9FF5F0EA9E42F0E99D42F0E89C45F079
:1002EB0060305018E5825FFFE582F42B5582FB509E
:1002FB00210ABA001D09B90019088016E5825BFBBB
:10030B00E582F42F5582FF50090EBE00050DBD008E
:10031B00010CC3EB9FF5F0EA9E42F0E99D42F0E839
:0D032B009C45F06007CC4820E701B3EC22B0
:10033800ED33EC33600A047003BD8004ECB2E7FCD3
:010348002292
:1008B20033DA929E35B16011377FE5FE39218489A2
:1008C2003AAEC3FF3C1D955B3D6358473E75FDF054
:1008D2003F3172183F800000C2D50201C80201BE3A
:1008E200BD80FA50F30201C5ED33EC330460F17BB5
:1008F2003B7AAA79B8783F12000EED33EC3392D5E9
:10090200247B5011A2D570DB500BED44802404509F
:1009120004A2D580CEEFFBEEFAEDF9ECF81201520B
:10092200EFF582F404FC12011E1201DAC082900873
:10093200B274091203F8ED33CC33D0F092D525F01E
:0A094200A2D57001C313CC13FD22EF
:100587003E9248DA3ECCCCCD3F2AAAAB40000000D1
:100597003F8000003F9837F03FB504F33FD744FC56
:1005A7003E3172173EB172173F0515913EDE5BD99A
:1005B700D2008002C200EDD2E7F8CD33EC330470ED
:1005C7000BBD800592D50201C80201BE40FBD314C2
:1005D70060F2F5F07C3FEE7A00C39496C8948B40A6
:1005E700230AC89469C8941A401A0AC89468C89418
:1005F7001F40110AC8945AC89425400805F07A008C
:10060700CDC2E7CDC0F08C1C8D1D8E1E8F1FEA2337
:1006170023C0E02497F582E43405F58312057712A9
:1006270001DAECC0E0EDC0E0EEC0E0EFC0E012059B
:1006370067A81CA91DAA1EAB1F1201D6D0E0FBD0CC
:10064700E0FAD0E0F9D0E0B2E7F812034C8C1C8D49
:100657001D8E1E8F1F90058774031203E9A81CA91E
:100667001DAA1EAB1F12000ED0E0600F24A3F58257
:10067700E43405F5831205771201DA8C1C8D1D8E83
:100687001E8F1FD0E0C3947FFDE49400FC12011974
:100697007B187A727931783F12000EA81CA91DAA1F
:1006A7001EAB1F1201DA30000B7BD97A5B79DE783B
:0506B7003E12000E22BE
:100349000201C8EC5D046005E8590470030201BEAE
:10035900120189580460F6EC4860F2EC7004FDFE65
:10036900FF22C860DB2481C85009C3986002500687
:100379000201C59850CAF582E9294B4A7005AB823A
:100389000201B475F0007C1A7880C3EF9BEE9AEDF8
:1003990099400DC3EF9BFFEE9AFEED99FDE842F0FF
:1003A900DC23ACF0D0E0FFD0E0FED0E0FDAB822052
:1003B900E7101BEB60BAEC2CFCEF33FFEE33FEEDDC
:1003C90033FD0201A0E803F830E705C0F075F0003D
:1003D900EF2FFFEE33FEED33FD40B830E7C280AAC0
:1003E900C0E0EFFBEEFAEDF9ECF812000ED0E0F503
:1003F900F0EFFBEEFAEDF9ECF8120567A3A3A3A35E
:10040900E8C0E0E9C0E0EAC0E0EBC0E0C0F01200FB
:100419000E120577A3A3A3A31201DAD0F0D0E0FB53
:0D042900D0E0FAD0E0F9D0E0F8D5F0D42210
:03000000020A4DA4
:0C0A4D00787FE4F6D8FD75812602094C84
:10043600BC000BBE0029EF8DF084FFADF022E4CCAA
:10044600F875F008EF2FFFEE33FEEC33FCEE9DEC73
:10045600984005FCEE9DFE0FD5F0E9E4CEFD22EDB9
:10046600F8F5F0EE8420D21CFEADF075F008EF2F03
:10047600FFED33FD4007985006D5F0F222C398FDF4
:050486000FD5F0EA2291
:10048B0075F008758200EF2FFFEE33FECD33CDCC28
:10049B0033CCC58233C5829BED9AEC99E5829840AB
:1004AB000CF582EE9BFEED9AFDEC99FC0FD5F0D688
:1004BB00E4CEFBE4CDFAE4CCF9A88222B800C1B9B2
:1004CB000059BA002DEC8BF084CFCECDFCE5F0CBF0
:1004DB00F97818EF2FFFEE33FEED33FDEC33FCEB29
:1004EB0033FB10D703994004EB99FB0FD8E5E4F9E4
:1004FB00FA227818EF2FFFEE33FEED33FDEC33FCD1
:10050B00C933C910D7059BE99A4007EC9BFCE99AC4
:10051B00F90FD8E0E4C9FAE4CCFB2275F010EF2F09
:10052B00FFEE33FEED33FDCC33CCC833C810D70709
:10053B009BEC9AE899400AED9BFDEC9AFCE899F844
:0E054B000FD5F0DAE4CDFBE4CCFAE4C8F922D7
:0E055900C3E49FFFE49EFEE49DFDE49CFC22B3
:10056700E493FC740193FD740293FE740393FF22DA
:10057700E493F8740193F9740293FA740393FB22DA
:00000001FF
