:100A91003F065B4F666D7D077F6F777C395E7971AD
:060AA100FEFDFBF7EFDF94
:10079800C200758901120003D2AFD2A9D2B4E4F520
:1007A80025752414F523F522F52120B41D120A6FAE
:1007B80020B40CC2900525E525B43C03E4F52530AA
:1007C800B4FD120A6F20B40480FBD29020B51D122C
:1007D8000A6F20B50CC2901525E525B4FF037525D1
:1007E8003B30B5FD120A6F20B50480FBD29020B6CD
:1007F80016120A6F20B605C290E4F52530B6FD1230
:100808000A6F20B60480FBD29020B72A120A6F2004
:10081800B719C290200010D28CD200E4752414F5C8
:1008280023F522F5218004C28CC20030B7FD120ADC
:100838006F20B70480FBD290E4FFFEFDFCAB24AA36
:1008480023A922A821D31205125014E4752414F503
:1008580023F522F5210525E525B43C03E4F525AC6F
:0E08680025EC12011EE4F50C12067D0207B20B
:03000B000209EBFC
:1009EB00C0E0C0F0C083C082C0D075D000C000C0D2
:1009FB0001C002C003C004C005C006C0071200033B
:100A0B0074FF2524F524E52334FFF523E52234FF79
:100A1B00F522E52134FFF521D007D006D005D0040F
:100A2B00D003D002D001D000D0D0D082D083D0F070
:030A3B00D0E032D6
:07000300758C4CE4F58A2224
:08067D008F0B8E0A8D098C0819
:10068500E4F50DAC0C12011E8F198E188D178C1602
:100695007F007E007D207C41120876AB0BAA0AA95B
:1006A50009A80812000E1201528F118E108D0F8CA1
:1006B5000E7BA07A86790178001204728F0DAB0C3F
:1006C5007D01120A3E7BA07A8679017800AF11AED2
:1006D50010AD0FAC0E120472AC00AD01AE02AF034B
:1006E500E47B107A27F9F81204728F0DAB0C7D02AA
:1006F500120A3EE47B107A27F9F8AF11AE10AD0F60
:10070500AC0E120472AC00AD01AE02AF03E47BE89F
:100715007A03F9F81204728F0DAB0C7D03120A3EB1
:10072500E47BE87A03F9F8AF11AE10AD0FAC0E1209
:100735000472AC00AD01AE02AF03E47B64FAF9F8D4
:100745001204728F0DAB0C7D04120A3EE47B64FA31
:10075500F9F8AF11AE10AD0FAC0E120472AC00ADCE
:1007650001AE02AF03E47B0AFAF9F81204728F0DA9
:10077500AB0C7D05120A3EE47B0AFAF9F8AF11AE1F
:1007850010AD0FAC0E120472AF038F0DAB0C7D06CE
:03079500020A3E17
:080A3E00EF7005ED640670265F
:100A4600EF900A9193F512EB600AC374069BB50505
:100A560003431280851280D2A6C2A6ED900AA09307
:060A6600F580D2A7C2A733
:030A6C00020AB3C8
:070AB3007F017E00020A73BF
:040A6F007F087E007E
:100A7300D3EF9400EE940040147D717C00ED1D7063
:0D0A8300011CED4C70F7EF1F70E61E80E3C4
:010A90002243
:10000E00EC4D6011E8497017ED33EC3304600DE4EC
:10001E00FCFFFEFD22E933E8330470F80201BE1244
:10002E00018958046009E4CC248150062850090245
:10003E0001C82840030201C5C0E0EB4A7044B980F4
:10004E0006D0E0FB0201B4EF4E701CBD8008EBFF42
:10005E00EAFEE9FD80EBE98DF0A4FEE5F00200F783
:10006E00E9CDF9EAFEEBFFEF89F0A4FCE5F0CE89CD
:10007E00F0A42EFFE435F0CD89F0A42DFEE435F08A
:10008E008067EF4E7005BD80D780C3EF8BF0A4ACB8
:10009E00F0EE8BF0A42CFCE435F0F8EF8AF0A42CF3
:1000AE00E5F038FCE433CB8DF0A42CFCE5F03BF806
:1000BE00EE8AF0A42CFCE5F038F8E433CF89F0A4F6
:1000CE002CFCE5F038CF3400CE89F0A42FFFE5F0FC
:1000DE003EFEE433C98DF0A42EFEE5F039CD8AF054
:1000EE00A42FFFE5F03EFEE43DFD33D0E0FB5007CC
:1000FE000BBB000F0201C8EC2CFCEF33FFEE33FEFE
:06010E00ED33FD0201A02B
:1001140075F020800E75F010800575F0087D007E66
:10012400007F003392D530D503120504EC33401020
:10013400EF33FFEE33FEED33FDEC33FCD5F0ED226F
:0E014400E5F0247EA2D513CC92E7CDCEFF22AB
:10015200EDD2E7CD33EC3392D524814006E4FFFEA5
:10016200FDFC22FCE4CFCECDCC24E0501174FF8004
:10017200EDC3CC13CCCD13CDCE13CECF13CF0470A1
:07018200F030D5DE02050498
:100876008F158E148D138C12E4FFFEFDFCAB15AAAA
:1008860014A913A8121202CB7026FFFEFDFCAB19A9
:10089600AA18A917A8161202CB60084006E4FFFEA4
:1008A600FDFC2274FFF519F518F517F5160209482F
:1008B600E4F51AF51BFFFEFDFCAB15AA14A913A857
:1008C600121202CB504BAF19AE18AD17AC1612016F
:1008D600528E1A8F1BAC1AAD1BEC120119C8ECC84C
:1008E600C9EDC9CAEECACBEFCBAF19AE18AD17AC7E
:1008F600161201D6E4FBFAF9F81202CB70A5AF1571
:10090600AE14AD13AC121203388F158E148D138CE2
:1009160012AF15AE14AD13AC1212057CAB19AA18A2
:10092600A917A81612000E1209898F198E188D178D
:100936008C16E51B30E00B1203388F198E188D17B5
:0B0946008C16AF19AE18AD17AC1622CE
:10018900E9D2E7C933E833F892D5EDD2E7CD33ECBC
:0701990033FC5002B2D52235
:1001A000EC30E7100FBF000C0EBE00080DBD0004C0
:1001B0000BEB6014A2D5EB13FCED92E7FD2274FF6C
:1001C000FCFDFEFF22E480F8A2D574FF13FC7D80C5
:0301D000E480EFD9
:1001D3000201BEE86480F8E933E83360110460F09B
:1001E300ED33EC337009E8FCE9FDEAFEEBFF220492
:1001F30060DED3EB9FEA9EE99DE8C2E78CF0C2F78D
:1002030095F0400CE8CCF8E9CDF9EACEFAEBCFFB58
:1002130012018985D0F05804700320D5B3E8047027
:10022300075002B2D50201C892D5EC0460F7E4CCC2
:10023300C0E0C398F8603B94186008400DD0E0FB21
:100243000201A0E4FBFAC9FC8028E830E406E4C913
:10025300FBE4CAFCE830E305E4C9CACBFCE8540775
:100263006010F8C3E913F9EA13FAEB13FBEC13FC80
:10027300D8F130F52FC3E49CFCEF9BFFEE9AFEED23
:1002830099FDD0E0FBEF4E4D4C701222DB030201CF
:10029300C5EC2CFCEF33FFEE33FEED33FDED30E721
:1002A300EB0201A0EF2BFFEE3AFEED39FDD0E0FBB0
:1002B30050130BBB00030201C8ED13FDEE13FEEF59
:0802C30013FFEC13FC0201A083
:1002CB0074F8CC6480CCC86480C8F582046043C3E6
:1002DB00EB9FF5F0EA9E42F0E99D42F0E89C45F079
:1002EB0060305018E5825FFFE582F42B5582FB509E
:1002FB00210ABA001D09B90019088016E5825BFBBB
:10030B00E582F42F5582FF50090EBE00050DBD008E
:10031B00010CC3EB9FF5F0EA9E42F0E99D42F0E839
:0D032B009C45F06007CC4820E701B3EC22B0
:10033800ED33EC33600A047003BD8004ECB2E7FCD3
:010348002292
:1009510033DA929E35B16011377FE5FE3921848902
:100961003AAEC3FF3C1D955B3D6358473E75FDF0B4
:100971003F3172183F800000C2D50201C80201BE9A
:10098100BD80FA50F30201C5ED33EC330460F17B15
:100991003B7AAA79B8783F12000EED33EC3392D549
:1009A100247B5011A2D570DB500BED448024045000
:1009B10004A2D580CEEFFBEEFAEDF9ECF81201526C
:1009C100EFF582F404FC12011E1201DAC0829009D3
:1009D1005174091203F8ED33CC33D0F092D525F0E0
:0A09E100A2D57001C313CC13FD2250
:100548003E9248DA3ECCCCCD3F2AAAAB4000000010
:100558003F8000003F9837F03FB504F33FD744FC95
:100568003E3172173EB172173F0515913EDE5BD9D9
:10057800D2018002C201EDD2E7F8CD33EC3304702A
:100588000BBD800592D50201C80201BE40FBD31401
:1005980060F2F5F07C3FEE7A00C39496C8948B40E5
:1005A800230AC89469C8941A401A0AC89468C89457
:1005B8001F40110AC8945AC89425400805F07A00CB
:1005C800CDC2E7CDC0F08C1C8D1D8E1E8F1FEA2377
:1005D80023C0E02458F582E43405F5831205381267
:1005E80001DAECC0E0EDC0E0EEC0E0EFC0E01205DB
:1005F80028A81CA91DAA1EAB1F1201D6D0E0FBD04B
:10060800E0FAD0E0F9D0E0B2E7F812034C8C1C8D88
:100618001D8E1E8F1F90054874031203E9A81CA99C
:100628001DAA1EAB1F12000ED0E0600F2464F582D5
:10063800E43405F5831205381201DA8C1C8D1D8E01
:100648001E8F1FD0E0C3947FFDE49400FC120119B3
:100658007B187A727931783F12000EA81CA91DAA5E
:100668001EAB1F1201DA30010B7BD97A5B79DE7879
:050678003E12000E22FD
:100349000201C8EC5D046005E8590470030201BEAE
:10035900120189580460F6EC4860F2EC7004FDFE65
:10036900FF22C860DB2481C85009C3986002500687
:100379000201C59850CAF582E9294B4A7005AB823A
:100389000201B475F0007C1A7880C3EF9BEE9AEDF8
:1003990099400DC3EF9BFFEE9AFEED99FDE842F0FF
:1003A900DC23ACF0D0E0FFD0E0FED0E0FDAB822052
:1003B900E7101BEB60BAEC2CFCEF33FFEE33FEEDDC
:1003C90033FD0201A0E803F830E705C0F075F0003D
:1003D900EF2FFFEE33FEED33FD40B830E7C280AAC0
:1003E900C0E0EFFBEEFAEDF9ECF812000ED0E0F503
:1003F900F0EFFBEEFAEDF9ECF8120528A3A3A3A39D
:10040900E8C0E0E9C0E0EAC0E0EBC0E0C0F01200FB
:100419000E120538A3A3A3A31201DAD0F0D0E0FB92
:0D042900D0E0FAD0E0F9D0E0F8D5F0D42210
:03000000020AA74A
:0C0AA700787FE4F6D8FD758125020798E1
:1004360075F008758200EF2FFFEE33FECD33CDCC7D
:1004460033CCC58233C5829BED9AEC99E582984000
:100456000CF582EE9BFEED9AFDEC99FC0FD5F0D6DD
:10046600E4CEFBE4CDFAE4CCF9A88222B800C1B907
:100476000059BA002DEC8BF084CFCECDFCE5F0CB45
:10048600F97818EF2FFFEE33FEED33FDEC33FCEB7E
:1004960033FB10D703994004EB99FB0FD8E5E4F939
:1004A600FA227818EF2FFFEE33FEED33FDEC33FC26
:1004B600C933C910D7059BE99A4007EC9BFCE99A1A
:1004C600F90FD8E0E4C9FAE4CCFB2275F010EF2F5F
:1004D600FFEE33FEED33FDCC33CCC833C810D7075F
:1004E6009BEC9AE899400AED9BFDEC9AFCE899F89A
:0E04F6000FD5F0DAE4CDFBE4CCFAE4C8F9222D
:0E050400C3E49FFFE49EFEE49DFDE49CFC2208
:10051200EB9FF5F0EA9E42F0E99D42F0EC6480C860
:0605220064809845F02200
:10052800E493FC740193FD740293FE740393FF2219
:10053800E493F8740193F9740293FA740393FB2219
:00000001FF
