:1000E5003F065B4F666D7D077F6F777C395E797163
:1000CD00E4F509F580D2A6C2A67580FED2A7C2A717
:0800DD001200031200F580F887
:1000030075B0FDE5B064FD602E1200ABE5B064FD94
:100013006025AFB0EF2483601B24C0601224E0602E
:100023000924F07012750904800D7509058008759F
:100033000906800375090775B0FBE5B064FB602E04
:100043001200ABE5B064FB6025AFB0EF2485601B05
:1000530024C0601224E0600924F07012750908803E
:100063000D750909800875090A800375090B75B0B8
:10007300F7E5B064F7602E1200ABE5B064F76025D6
:10008300AFB0EF2489601B24C0601224E060092410
:10009300F0701275090C800D75090D800875090E35
:0800A300800375090FAF09226B
:0C00F500EF9000E593F580D2A6C2A62291
:0400AB007F057E004F
:1000AF00D3EF9400EE940040147D717C00ED1D7031
:0D00BF00011CED4C70F7EF1F70E61E80E392
:0100CC002211
:03000000020101F9
:0C010100787FE4F6D8FD7581090200CD7E
:00000001FF
